:020000040800F2
:1000000000100020412C0008C9070008D307000891
:1000100000000000000000000000000000000000E0
:10002000000000000000000000000000D9070008E8
:100030000000000000000000E3070008ED070008D2
:10004000912C0008912C0008912C0008912C00089C
:10005000912C0008912C0008912C0008912C00088C
:1000600000000000912C0008912C0008912C000841
:10007000912C0008912C0008912C0008FD07000825
:10008000912C000800000000000000001508000886
:1000900000000000912C0008912C0008912C000811
:1000A00000000000912C000800000000912C0008C6
:1000B0000000000000000000000000000000000040
:1000C00010B5064C2378002B07D1054B002B02D02E
:1000D000044800E000BF0123237010BD1000002081
:1000E00000000000EC2C0008044B10B5002B03D0DE
:1000F0000349044800E000BF10BDC04600000000F6
:1001000014000020EC2C0008002243088B4274D31A
:1001100003098B425FD3030A8B4244D3030B8B4208
:1001200028D3030C8B420DD3FF22090212BA030C11
:100130008B4202D31212090265D0030B8B4219D3F2
:1001400000E0090AC30B8B4201D3CB03C01A524112
:10015000830B8B4201D38B03C01A5241430B8B425A
:1001600001D34B03C01A5241030B8B4201D30B0343
:10017000C01A5241C30A8B4201D3CB02C01A52416A
:10018000830A8B4201D38B02C01A5241430A8B422D
:1001900001D34B02C01A5241030A8B4201D30B0216
:1001A000C01A5241CDD2C3098B4201D3CB01C01A30
:1001B000524183098B4201D38B01C01A524143093A
:1001C0008B4201D34B01C01A524103098B4201D328
:1001D0000B01C01A5241C3088B4201D3CB00C01A95
:1001E000524183088B4201D38B00C01A524143080D
:1001F0008B4201D34B00C01A5241411A00D2014632
:10020000524110467047FFE701B5002000F006F8A4
:1002100002BDC0460029F7D076E770477047C04658
:1002200080B582B000AF78607B681B68174A934244
:1002300028D1174B1B78642B03D1164B00221A7060
:1002400006E0134B1B78002B02D1124B01221A70CF
:10025000104B1B78012B06D10D4B1B780133DAB202
:100260000B4B1A7009E00B4B1B78002B05D1084B88
:100270001B78013BDAB2064B1A708023DB05044A77
:1002800012789A63C046BD4602B080BD002000408F
:100290002C0000200000002080B500AF00F0CCFA58
:1002A00000F016F800F058F900F026F900F07CF89C
:1002B00000F0FCF8044B0421180001F021FB034B73
:1002C000180001F0C7FAFEE7B0000020F00000209F
:1002D00080B594B000AF2023FB18180030231A001B
:1002E000002102F0FBFC1023FB18180010231A0059
:1002F000002102F0F3FC3B00180010231A0000213B
:1003000002F0ECFC2023FB1802221A602023FB18C9
:100310000122DA602023FB1810221A612023FB1827
:1003200002221A622023FB1800225A622023FB18A3
:10033000A02292039A622023FB180022DA62202373
:10034000FB18180000F024FD031E01D000F038F95E
:100350001023FB1807221A601023FB1802225A6090
:100360001023FB1800229A601023FB180022DA6089
:100370001023FB180121180001F024F8031E01D0FE
:1003800000F01EF93B0001221A603B0000229A6037
:100390003B00180001F064F9031E01D000F010F9D1
:1003A000C046BD4614B080BD80B58EB000AF2823D6
:1003B000FB18180010231A00002102F08FFC2023E4
:1003C000FB18180008231A00002102F087FC3B1DCF
:1003D00018001C231A00002102F080FC324B8022FE
:1003E000D2051A60304B962252015A602E4B0022E1
:1003F0009A602D4B6322DA602B4B00221A612A4B44
:1004000000229A61284B180001F0F8F9031E01D070
:1004100000F0D6F82823FB18802252011A60282306
:10042000FA18214B1100180001F07EFC031E01D0C8
:1004300000F0C6F81C4B180001F02EFA031E01D084
:1004400000F0BEF82023FB1800221A602023FB18BE
:1004500000225A602023FA18134B1100180002F0F2
:1004600055F8031E01D000F0ABF83B1D60221A6066
:100470003B1D00225A603B1D00229A603B1D00225A
:100480001A61391D084B0422180001F095FB031E68
:1004900001D000F095F8044B180000F0FDF8C046BC
:1004A000BD460EB080BDC046B000002080B500AF94
:1004B0000E4B0F4A1A600D4B0E4A5A600B4B00222E
:1004C0009A600A4BBF22DA60084B00221A61074B80
:1004D00000229A61054B180001F090F9031E01D02B
:1004E00000F06EF8C046BD4680BDC046F00000205A
:1004F000002000401027000080B500AF144B154AC3
:100500001A60134B962212025A60114B00229A6015
:100510000F4B0022DA600E4B00221A610C4B0C22AA
:100520005A610B4B00229A61094B0022DA61084B99
:1005300000221A62064B00225A62054B180002F094
:100540004DF8031E01D000F03BF8C046BD4680BD0B
:10055000300000200038014080B584B000AF174B58
:10056000164A52698021C9030A435A61134B5A69DA
:100570008023DB031340FB60FB68104B0F4A52697A
:10058000802189020A435A610C4B5A6980239B02DD
:100590001340BB60BB68094B084A52698021C902FD
:1005A0000A435A61054B5A698023DB0213407B6082
:1005B0007B68C046BD4604B080BDC0460010024006
:1005C00080B500AFC046BD4680BD000080B582B09A
:1005D00000AF0F4B0E4A926901210A439A610C4BFE
:1005E0009B69012213407B607B68094B084AD269F2
:1005F000802149050A43DA61054BDA6980235B05EE
:1006000013403B603B68C046BD4602B080BDC0465B
:100610000010024080B584B000AF78607B681A6833
:100620008023DB059A4214D1194B194AD269012162
:100630000A43DA61164BDB6901221340FB60FB6859
:10064000002200210F2000F007FA0F2000F01AFA14
:100650001AE07B681B680F4A934215D10C4B0C4A79
:10066000D269802149000A43DA61094BDA698023A3
:100670005B001340BB60BB6800220021132000F028
:10068000EBF9132000F0FEF9C046BD4604B080BD72
:10069000001002400020004080B588B000AF7860B4
:1006A0000C23FB18180014231A00002102F016FB7B
:1006B0007B681A688023DB059A4228D1164B164ABC
:1006C00052698021C9020A435A61134B5A69802337
:1006D000DB021340BB60BB680C23FB1808221A60C6
:1006E0000C23FB1802225A600C23FB1800229A608C
:1006F0000C23FB180022DA600C23FB1802221A617B
:100700000C23FB18054A1900100000F0D9F9C04667
:10071000BD4608B080BDC04600100240000400483D
:1007200080B58AB000AF78601423FB18180014233A
:100730001A00002102F0D2FA7B681B681F4A93421C
:1007400037D11F4B1E4A92698021C9010A439A6121
:100750001B4B9A698023DB0113403B613B69184BBB
:10076000174A5269802189020A435A61144B5A6917
:1007700080239B021340FB60FB681423FB18114A83
:100780001A601423FB1802225A601423FB1800225B
:100790009A601423FB180322DA601423FB18012249
:1007A0001A611423FA189023DB051100180000F0D9
:1007B00087F9C046BD460AB080BDC046003801403A
:1007C000001002400480000080B500AFC046BD4666
:1007D00080BD80B500AFFEE780B500AFC046BD4626
:1007E00080BD80B500AFC046BD4680BD80B500AFBE
:1007F00000F06AF8C046BD4680BD000080B500AF7D
:10080000034B180001F0C2F8C046BD4680BDC0468B
:10081000B000002080B500AF034B180001F0B6F81F
:10082000C046BD4680BDC046F000002080B500AF88
:10083000C046BD4680BD000080B500AF074B074AEB
:10084000126810210A431A60002000F009F8FFF72F
:10085000BDFE00231800BD4680BDC04600200240FA
:1008600090B583B000AF7860144B1C68144B1B78B4
:100870001900FA239800FFF747FC03001900200035
:10088000FFF742FC0300180000F00CF9031E01D032
:1008900001230FE07B68032B0BD8796801235B42AF
:1008A0000022180000F0D8F8064B7A681A6000237E
:1008B00000E001231800BD4603B090BD04000020F5
:1008C0000C0000200800002080B500AF054B1B780D
:1008D0001A00054B1B68D218034B1A60C046BD4670
:1008E00080BDC0460C0000203001002080B500AF64
:1008F000024B1B681800BD4680BDC0463001002079
:1009000080B582B000AF0200FB1D1A70FB1D1B7882
:100910007F2B09D8064BFA1D127811001F220A40BE
:10092000012191400A001A60C046BD4602B080BD58
:1009300000E100E0B0B582B000AF02003960FB1DFD
:100940001A70FB1D1B787F2B28D82F4CFB1D1B78A2
:100950005BB29B082C49FA1D127852B29208C03241
:1009600092005258F91D0978080003210140C9007E
:10097000FF2088400100C94311403A689201FF20DE
:100980001040FA1D1278150003222A40D200904030
:1009900002000A43C0339B001A5131E01B4CFB1D7F
:1009A0001B781A000F231340083B9908174AFB1DB8
:1009B0001B7818000F230340083B9B0806339B005D
:1009C000D31804331B68FA1D12781000032202406A
:1009D000D200FF2090400200D2431A403B689B01A6
:1009E000FF201840FB1D1B781D0003232B40DB005C
:1009F000984003001A438B1D9B00E31804331A60D0
:100A0000C046BD4602B0B0BD00E100E000ED00E030
:100A100080B582B000AF78607B68013B0C4A93429E
:100A200001D9012310E00B4B7A68013A5A60012387
:100A30005B4203211800FFF77DFF064B00229A60FE
:100A4000044B07221A6000231800BD4602B080BD87
:100A5000FFFFFF0010E000E080B584B000AFB96098
:100A60007A600F23FB18021C1A70BA680F23FB1858
:100A70001B785BB211001800FFF75CFFC046BD4653
:100A800004B080BD80B582B000AF0200FB1D1A70BB
:100A9000FB1D1B785BB21800FFF732FFC046BD4656
:100AA00002B080BD80B582B000AF78607B6818006E
:100AB000FFF7AEFF03001800BD4602B080BD000086
:100AC00080B586B000AF7860396000237B6149E172
:100AD0003B681B6801217A6991400A001340FB6062
:100AE000FB68002B00D13AE13B685B68012B0BD01F
:100AF0003B685B68022B07D03B685B68112B03D017
:100B00003B685B68122B30D17B689B683B617B69DB
:100B10005B0003229A401300DA433B6913403B61B8
:100B20003B68DA687B695B009A4013003A691343BB
:100B30003B617B683A699A607B685B683B61012234
:100B40007B699A401300DA433B6913403B613B6881
:100B50005B681B0901221A407B699A4013003A69BD
:100B600013433B617B683A695A607B68DB683B6191
:100B70007B695B0003229A401300DA433B69134010
:100B80003B613B689A687B695B009A4013003A6955
:100B900013433B617B683A69DA603B685B68022B10
:100BA00003D03B685B68122B23D17B69DA087B6832
:100BB00008329200D3583B617B69072213409B00A7
:100BC0000F229A401300DA433B6913403B613B68B4
:100BD0001A697B6907210B409B009A4013003A6910
:100BE00013433B617B69DA087B68083292003969FC
:100BF000D1507B681B683B617B695B0003229A4094
:100C00001300DA433B6913403B613B685B68032296
:100C10001A407B695B009A4013003A6913433B61B9
:100C20007B683A691A603B685A6880235B05134009
:100C300000D194E0514B514A926901210A439A61D3
:100C40004E4B9B6901221340BB60BB684C4A7B69D9
:100C50009B0802339B009B583B617B690322134036
:100C60009B000F229A401300DA433B6913403B611B
:100C70007A689023DB059A420DD07B68414A934203
:100C800007D07B68404A934201D1022304E0052348
:100C900002E0012300E000237A6903210A40920068
:100CA00093403A6913433B6135497B699B080233A2
:100CB0009B003A695A50354B1B683B61FB68DA432D
:100CC0003B6913403B613B685A6880235B021340D9
:100CD00003D03A69FB6813433B612C4B3A691A60B5
:100CE0002A4B5B683B61FB68DA433B6913403B611D
:100CF0003B685A6880239B02134003D03A69FB6823
:100D000013433B61214B3A695A60204B9B683B611E
:100D1000FB68DA433B6913403B613B685A688023B8
:100D20005B03134003D03A69FB6813433B61174BE5
:100D30003A699A60154BDB683B61FB68DA433B69B3
:100D400013403B613B685A6880239B03134003D0E8
:100D50003A69FB6813433B610C4B3A69DA607B6983
:100D600001337B613B681A687B69DA40131E00D04F
:100D7000AEE6C046BD4606B080BDC046001002408B
:100D80000000014000040048000800480004014041
:100D900080B588B000AF78607B68002B01D101235B
:100DA00002E37B681B680122134000D18DE0C44B35
:100DB0005B680C221340042B0ED0C14B5B680C22E5
:100DC0001340082B16D1BE4B5A6880235B021A4091
:100DD00080235B029A420DD1B94B1A6880239B0293
:100DE000134000D170E07B685B68002B00D06BE0A3
:100DF0000123D9E27B685B68012B07D1B04BB04A75
:100E00001268802149020A431A602FE07B685B6800
:100E1000002B0CD1AA4BAA4A1268AA490A401A60B0
:100E2000A74BA74A1268A8490A401A601EE07B68CF
:100E30005B68052B0ED1A24BA14A12688021C90222
:100E40000A431A609E4B9E4A1268802149020A4357
:100E50001A600BE09A4B9A4A12689A490A401A6043
:100E6000974B974A126898490A401A607B685B68FA
:100E7000002B14D0FFF73AFD0300BB6108E0FFF739
:100E800035FD0200BB69D31A642B01D903238BE221
:100E90008B4B1A6880239B021340F0D015E0FFF7BC
:100EA00025FD0300BB6108E0FFF720FD0200BB69E0
:100EB000D31A642B01D9032376E2814B1A6880236D
:100EC0009B021340F0D100E0C0467B681B68022201
:100ED000134000D169E07A4B5B680C2213400BD0C1
:100EE000774B5B680C221340082B1CD1744B5A685B
:100EF00080235B02134016D1714B1B680222134002
:100F000005D07B68DB68012B01D001234CE26C4AE1
:100F10006B4B1B68F8218B4319007B681B69DB0056
:100F20000B43136041E07B68DB68002B24D0644BEB
:100F3000634A126801210A431A60FFF7D7FC0300D5
:100F4000BB6108E0FFF7D2FC0200BB69D31A022B99
:100F500001D9032328E25A4B1B6802221340F1D027
:100F6000574A574B1B68F8218B4319007B681B6954
:100F7000DB000B43136018E0514B514A126801210A
:100F80008A431A60FFF7B2FC0300BB6108E0FFF779
:100F9000ADFC0200BB69D31A022B01D9032303E283
:100FA000474B1B6802221340F1D17B681B68082263
:100FB000134036D07B68DB69002B19D0404B404A88
:100FC000526A01210A435A62FFF790FC0300BB6199
:100FD00008E0FFF78BFC0200BB69D31A022B01D992
:100FE0000323E1E1364B5B6A02221340F1D018E0A3
:100FF000334B334A526A01218A435A62FFF776FC27
:101000000300BB6108E0FFF771FC0200BB69D31A63
:10101000022B01D90323C7E1294B5B6A022213404B
:10102000F1D17B681B680422134000D1B6E01F2376
:10103000FB1800221A70224BDA6980235B051340EB
:1010400011D11F4B1E4AD269802149050A43DA613A
:101050001B4BDA6980235B051340FB60FB681F2391
:10106000FB1801221A70194B1A6880235B00134089
:101070001AD1164B154A1268802149000A431A609A
:10108000FFF734FC0300BB6108E0FFF72FFC020010
:10109000BB69D31A642B01D9032385E10B4B1A6872
:1010A00080235B001340F0D07B689B68012B0FD13D
:1010B000034B034A126A01210A431A6236E0C04612
:1010C00000100240FFFFFEFFFFFFFBFF007000402B
:1010D0007B689B68002B0CD1B54BB54A126A012185
:1010E0008A431A62B24BB24A126A04218A431A62D4
:1010F0001CE07B689B68052B0CD1AD4BAC4A126A97
:1011000004210A431A62AA4BA94A126A01210A431E
:101110001A620BE0A64BA64A126A01218A431A62A0
:10112000A34BA34A126A04218A431A627B689B6814
:10113000002B14D0FFF7DAFB0300BB6109E0FFF7D7
:10114000D5FB0200BB69D31A9A4A934201D9032303
:101150002AE1974B1B6A02221340F0D013E0FFF7FD
:10116000C5FB0300BB6109E0FFF7C0FB0200BB69E0
:10117000D31A904A934201D9032315E18C4B1B6A81
:1011800002221340F0D11F23FB181B78012B05D13D
:10119000874B874AD26988490A40DA617B681B68B5
:1011A0001022134063D07B685B69012B2AD1804BEE
:1011B0007F4A526B04210A435A637D4B7C4A526B2F
:1011C00001210A435A63FFF791FB0300BB6108E06A
:1011D000FFF78CFB0200BB69D31A022B01D9032352
:1011E000E2E0734B5B6B02221340F1D0704A704B0C
:1011F0005B6BF8218B4319007B689B69DB000B4319
:10120000536334E07B685B69053311D1684B684AEE
:10121000526B04218A435A63654A654B5B6BF82124
:101220008B4319007B689B69DB000B4353631EE013
:101230005F4B5F4A526B04210A435A635C4B5C4A22
:10124000526B01218A435A63FFF750FB0300BB61D5
:1012500008E0FFF74BFB0200BB69D31A022B01D950
:101260000323A1E0524B5B6B02221340F1D17B6858
:101270001B6A002B00D196E04D4B5B680C2213409B
:10128000082B00D16AE07B681B6A022B4BD1484BCC
:10129000474A126849490A401A60FFF727FB0300D2
:1012A000BB6108E0FFF722FB0200BB69D31A022BE7
:1012B00001D9032378E03E4B1A6880239B04134036
:1012C000F0D13B4A3A4BDB6A0F218B4319007B6814
:1012D000DB6A0B43D362364A354B5B6838491940A9
:1012E0007B68986A7B685B6A03430B435360304BAF
:1012F0002F4A1268802149040A431A60FFF7F6FA60
:101300000300BB6108E0FFF7F1FA0200BB69D31AE2
:10131000022B01D9032347E0254B1A6880239B0445
:101320001340F0D03FE0224B214A126823490A4083
:101330001A60FFF7DBFA0300BB6108E0FFF7D6FA9B
:101340000200BB69D31A022B01D903232CE0184BEE
:101350001A6880239B041340F0D124E07B681B6A49
:10136000012B01D101231FE0114B5B687B61104B06
:10137000DB6A3B617A6980235B021A407B685B6AA7
:101380009A420ED13B690F221A407B68DB6A9A426F
:1013900007D17A69F0239B031A407B689B6A9A42C3
:1013A00001D0012300E000231800BD4608B080BD35
:1013B0000010024088130000FFFFFFEFFFFFFFFE59
:1013C000FFFFC2FF80B584B000AF786039607B68F2
:1013D000002B01D10123B2E05B4B1B6801221A40B4
:1013E0003B689A4211D2584B574A126801218A43EE
:1013F00011003A680A431A60534B1B6801221A40D5
:101400003B689A4201D0012399E07B681B68022265
:10141000134015D07B681B680422134006D04B4B49
:101420004A4A5268E021C9000A435A60474A474B7A
:101430005B68F0218B4319007B689B680B4353600A
:101440007B681B680122134040D07B685B68012BDE
:1014500007D13E4B1A6880239B02134014D101230D
:101460006DE07B685B68022B07D1384B1A688023DC
:101470009B04134008D1012361E0344B1B68022216
:10148000134001D101235AE0304A304B5B680321FD
:101490008B4319007B685B680B435360FFF726FAA8
:1014A0000300FB6009E0FFF721FA0200FB68D31A92
:1014B000274A934201D9032341E0244B5B680C2265
:1014C0001A407B685B689B009A42ECD11E4B1B68FC
:1014D00001221A403B689A4211D91B4B1A4A1268E2
:1014E00001218A4311003A680A431A60164B1B68AF
:1014F00001221A403B689A4201D001231FE07B6819
:101500001B680422134008D0104A104B5B68114935
:1015100019407B68DB680B43536000F021F8010041
:101520000A4B5B681B090F2213400B4AD35C0A006D
:10153000DA400A4B1A600020FFF792F900231800E6
:10154000BD4604B080BDC0460020024000100240ED
:1015500088130000FFF8FFFF242D0008040000207E
:1015600090B58FB000AF1423FB18284A13CA13C3D9
:1015700012681A603B1D264A13CA13C312681A6008
:101580000023FB620023BB6200237B6300237B629A
:1015900000233B631F4B5B68FB62FB6A0C2213401A
:1015A000042B02D0082B03D027E01B4B3B6327E022
:1015B000FB6A9B0C0F2213401422BA18D35C7B6287
:1015C000144BDB6A0F2213403A1DD35CBB62FA6AEC
:1015D00080235B02134009D0B96A0F48FEF794FDDF
:1015E00003001A007B6A53437B6303E07B6A0B4A68
:1015F00053437B637B6B3B6302E0074B3B63C0461B
:101600003B6B1800BD460FB090BDC046042D0008CE
:10161000142D00080010024000127A0000093D005D
:1016200080B500AF024B1B681800BD4680BDC046A8
:101630000400002080B500AFFFF7F2FF0100064B69
:101640005B681B0A07221340044AD35CD9400B0095
:101650001800BD4680BDC04600100240342D000871
:1016600080B586B000AF786000233B610023FB604B
:101670007B681A6880235B02134000D18EE0172339
:10168000FB1800221A70574BDA6980235B05134060
:1016900011D1544B534AD269802149050A43DA617A
:1016A000504BDA6980235B051340BB60BB6817238E
:1016B000FB1801221A704C4B1A6880235B00134000
:1016C0001AD1494B484A1268802149000A431A60DE
:1016D000FFF70CF903003B6108E0FFF707F9020090
:1016E0003B69D31A642B01D9032376E03E4B1A6879
:1016F00080235B001340F0D03A4B1A6AC0239B0052
:101700001340FB60FB68002B34D07B685A68C02311
:101710009B001A40FB689A422CD0324B1B6A334A1A
:101720001340FB602F4B2F4A126A802149020A4363
:101730001A622C4B2B4A126A2D490A401A62294B15
:10174000FA681A62FB680122134013D0FFF7CEF843
:1017500003003B6109E0FFF7C9F802003B69D31AB7
:10176000244A934201D9032337E01E4B1B6A02220D
:101770001340F0D01B4A1B4B1B6A1C4919407B6865
:101780005B680B4313621723FB181B78012B05D1F1
:10179000144B144AD26918490A40DA617B681B6805
:1017A0000122134009D00F4A0E4B1B6B03218B43C0
:1017B00019007B689B680B4313637B681B682022BE
:1017C000134009D0074A074B1B6B10218B431900AC
:1017D0007B68DB680B43136300231800BD4606B02B
:1017E00080BDC0460010024000700040FFFCFFFFBB
:1017F000FFFFFEFF88130000FFFFFFEF80B582B000
:1018000000AF78607B68002B01D101231EE07B686C
:101810003D229B5CDBB2002B07D17B683C22002180
:1018200099547B681800FEF7F5FE7B683D22022183
:1018300099547B681A687B6804331900100000F023
:1018400051FB7B683D220121995400231800BD46BD
:1018500002B080BD80B584B000AF78607B681B6843
:101860007A681268D26801210A43DA607B681B68D3
:101870009B6807221340FB60FB68062B07D07B6840
:101880001B687A681268126801210A431A600023F3
:101890001800BD4604B080BD80B582B000AF78604E
:1018A0007B68002B01D101231EE07B683D229B5CFD
:1018B000DBB2002B07D17B683C22002199547B6866
:1018C000180000F015F87B683D22022199547B68CE
:1018D0001A687B6804331900100000F003FB7B6872
:1018E0003D220121995400231800BD4602B080BD5D
:1018F00080B582B000AF7860C046BD4602B080BD02
:1019000080B584B000AF786039607B681B68396847
:101910000122180000F0D6FD7B681B68184A93422C
:1019200009D07B681B68174A934204D07B681B6808
:10193000154A934201D1012300E00023002B08D077
:101940007B681B687A681268526C802109020A431E
:101950005A647B681B689B6807221340FB60FB6826
:10196000062B07D07B681B687A6812681268012111
:101970000A431A6000231800BD4604B080BDC0466B
:10198000002C0140004401400048014080B582B075
:1019900000AF78607B681B681B6902221340022B32
:1019A00024D17B681B68DB6802221340022B1DD107
:1019B0007B681B68032252421A617B6801221A77F6
:1019C0007B681B689B690322134004D07B68180066
:1019D00000F070FA07E07B68180000F063FA7B689B
:1019E000180000F06FFA7B6800221A777B681B688A
:1019F0001B6904221340042B25D17B681B68DB681C
:101A000004221340042B1ED17B681B68052252421E
:101A10001A617B6802221A777B681B689A69C02367
:101A20009B00134004D07B68180000F043FA07E0E5
:101A30007B68180000F036FA7B68180000F042FA64
:101A40007B6800221A777B681B681B690822134099
:101A5000082B24D17B681B68DB6808221340082B05
:101A60001DD17B681B68092252421A617B680422DF
:101A70001A777B681B68DB690322134004D07B68FC
:101A8000180000F017FA07E07B68180000F00AFA67
:101A90007B68180000F016FA7B6800221A777B68D2
:101AA0001B681B6910221340102B25D17B681B6813
:101AB000DB6810221340102B1ED17B681B6811229B
:101AC00052421A617B6808221A777B681B68DA69C0
:101AD000C0239B00134004D07B68180000F0EAF993
:101AE00007E07B68180000F0DDF97B68180000F063
:101AF000E9F97B6800221A777B681B681B69012261
:101B00001340012B0FD17B681B68DB680122134057
:101B1000012B08D17B681B68022252421A617B6844
:101B20001800FEF77DFB7B681B681B698022134051
:101B3000802B0FD17B681B68DB6880221340802BD1
:101B400008D17B681B68812252421A617B681800A9
:101B500000F03CFD7B681B681B6940221340402B52
:101B60000FD17B681B68DB6840221340402B08D1F3
:101B70007B681B68412252421A617B68180000F0A2
:101B8000A9F97B681B681B6920221340202B0FD109
:101B90007B681B68DB6820221340202B08D17B6800
:101BA0001B68212252421A617B68180000F006FD72
:101BB000C046BD4602B080BD80B584B000AFF860BD
:101BC000B9607A60FB683C229B5C012B01D1022347
:101BD000A4E0FB683C2201219954FB683D220221CC
:101BE00099547B68042B29D002D8002B05D08CE0B7
:101BF000082B46D00C2B65D087E0FB681B68BA68C1
:101C00001100180000F0E4F9FB681B68FA6812681C
:101C1000926908210A439A61FB681B68FA68126896
:101C2000926904218A439A61FB681B68FA6812680A
:101C30009169BA6812690A439A6166E0FB681B6899
:101C4000BA681100180000F041FAFB681B68FA68D6
:101C500012689269802109010A439A61FB681B6836
:101C6000FA68126892692F490A409A61FB681B68FA
:101C7000FA6812689169BA68126912020A439A6195
:101C800043E0FB681B68BA681100180000F09CFA7A
:101C9000FB681B68FA681268D26908210A43DA6196
:101CA000FB681B68FA681268D26904218A43DA610A
:101CB000FB681B68FA681268D169BA6812690A433E
:101CC000DA6122E0FB681B68BA681100180000F0B6
:101CD000FBFAFB681B68FA681268D2698021090167
:101CE0000A43DA61FB681B68FA681268D2690D4919
:101CF0000A40DA61FB681B68FA681268D169BA6841
:101D0000126912020A43DA61C046FB683D220121D2
:101D10009954FB683C220021995400231800BD46C9
:101D200004B080BDFFFBFFFF80B584B000AF7860DA
:101D300039607B683C229B5C012B01D10223ABE024
:101D40007B683C22012199547B683D2202219954F1
:101D50007B681B689B68FB60FB6877229343FB6092
:101D6000FB684F4A1340FB607B681B68FA689A6007
:101D70003B681B68402B00D16BE00ED8102B00D1C4
:101D800077E003D8002B00D173E07CE0202B00D15A
:101D90006FE0302B00D16CE075E0702B0ED004D8D2
:101DA000502B36D0602B44D06DE0802252019342FC
:101DB00068D080229201934217D064E07B68186853
:101DC0003B6899683B685A683B68DB6800F05AFBDF
:101DD0007B681B689B68FB60FB6877221343FB6092
:101DE0007B681B68FA689A604DE07B6818683B68FE
:101DF00099683B685A683B68DB6800F043FB7B6886
:101E00001B687A68126892688021C9010A439A6047
:101E100039E07B6818683B6859683B68DB681A00E2
:101E200000F0B6FA7B681B685021180000F010FB28
:101E300029E07B6818683B6859683B68DB681A00D2
:101E400000F0D4FA7B681B686021180000F000FBEA
:101E500019E07B6818683B6859683B68DB681A00C2
:101E600000F096FA7B681B684021180000F0F0FA39
:101E700009E07B681A683B681B681900100000F0D5
:101E8000E7FA00E0C0467B683D22012199547B6857
:101E90003C220021995400231800BD4604B080BDA7
:101EA000FF00FFFF80B582B000AF7860C046BD463E
:101EB00002B080BD80B582B000AF7860C046BD463C
:101EC00002B080BD80B582B000AF7860C046BD462C
:101ED00002B080BD80B582B000AF7860C046BD461C
:101EE00002B080BD80B584B000AF786039607B6897
:101EF0001B68FB607B68304A934208D07A68802375
:101F0000DB059A4203D07B682C4A934208D1FB68D8
:101F100070229343FB603B685B68FA681343FB6085
:101F20007B68254A934214D07A688023DB059A4265
:101F30000FD07B68214A93420BD07B68204A9342A2
:101F400007D07B681F4A934203D07B681E4A9342A6
:101F500008D1FB681D4A1340FB603B68DB68FA68E8
:101F60001343FB60FB68802293431A003B685B6964
:101F70001343FB607B68FA681A603B689A687B6869
:101F8000DA623B681A687B689A627B680A4A934205
:101F900007D07B680B4A934203D07B680A4A93427E
:101FA00003D13B681A697B681A637B6801225A6116
:101FB000C046BD4604B080BD002C01400004004076
:101FC000002000400044014000480140FFFCFFFFAA
:101FD00080B586B000AF786039607B681B6A0122EB
:101FE00093431A007B681A627B681B6A7B617B687B
:101FF0005B683B617B689B69FB60FB687022934375
:10200000FB60FB6803229343FB603B681B68FA6834
:102010001343FB607B69022293437B613B689B68AF
:102020007A6913437B617B68234A934207D07B68BC
:10203000224A934203D07B68214A93420CD17B69A8
:10204000082293437B613B68DB687A6913437B61B9
:102050007B69042293437B617B68174A934207D0D4
:102060007B68164A934203D07B68154A934211D18C
:102070003B69144A13403B613B69134A13403B617F
:102080003B685B693A6913433B613B689B693A690A
:1020900013433B617B683A695A607B68FA689A61CE
:1020A0003B685A687B685A637B687A691A62C046E3
:1020B000BD4606B080BDC046002C01400044014032
:1020C00000480140FFFEFFFFFFFDFFFF80B586B027
:1020D00000AF786039607B681B6A102293431A0056
:1020E0007B681A627B681B6A7B617B685B683B610B
:1020F0007B689B69FB60FB682C4A1340FB60FB68B4
:102100002B4A1340FB603B681B681B02FA681343B1
:10211000FB607B69202293437B613B689B681B01CA
:102120007A6913437B617B68224A93420DD17B69B4
:10213000802293437B613B68DB681B017A69134310
:102140007B617B69402293437B617B68194A9342A0
:1021500007D07B68184A934203D07B68174A9342A2
:1021600013D13B69164A13403B613B69154A134042
:102170003B613B685B699B003A6913433B613B6889
:102180009B699B003A6913433B617B683A695A60DB
:102190007B68FA689A613B685A687B689A637B68D7
:1021A0007A691A62C046BD4606B080BDFF8FFFFF48
:1021B000FFFCFFFF002C01400044014000480140AB
:1021C000FFFBFFFFFFF7FFFF80B586B000AF786031
:1021D00039607B681B6A334A1A407B681A627B68E5
:1021E0001B6A7B617B685B683B617B68DB69FB60CA
:1021F000FB6870229343FB60FB6803229343FB6000
:102200003B681B68FA681343FB607B69264A1340EE
:102210007B613B689B681B027A6913437B617B6827
:10222000224A93420DD17B69214A13407B613B686E
:10223000DB681B027A6913437B617B691D4A13408B
:102240007B617B68194A934207D07B681A4A9342A4
:1022500003D07B68194A934213D13B69184A134053
:102260003B613B69174A13403B613B685B691B015B
:102270003A6913433B613B689B691B013A6913430D
:102280003B617B683A695A607B68FA68DA613B684F
:102290005A687B68DA637B687A691A62C046BD4611
:1022A00006B080BDFFFEFFFFFFFDFFFF002C0140D9
:1022B000FFF7FFFFFFFBFFFF004401400048014024
:1022C000FFEFFFFFFFDFFFFF80B586B000AF786054
:1022D00039607B681B6A264A1A407B681A627B68F1
:1022E0001B6A3B617B685B687B617B68DB69FB60C9
:1022F000FB68204A1340FB60FB681F4A1340FB60E9
:102300003B681B681B02FA681343FB603B691B4A6E
:1023100013403B613B689B681B033A6913433B6175
:102320007B68174A934207D07B68164A934203D0D2
:102330007B68154A934209D17B69144A13407B613B
:102340003B685B699B017A6913437B617B687A69AF
:102350005A607B68FA68DA613B685A687B681A647D
:102360007B683A691A62C046BD4606B080BDC04669
:10237000FFEFFFFFFF8FFFFFFFFCFFFFFFDFFFFF10
:10238000002C01400044014000480140FFBFFFFF16
:1023900080B586B000AFF860B9607A60FB681B6AF0
:1023A0007B61FB681B6A012293431A00FB681A6277
:1023B000FB689B693B613B69F02293433B617B680F
:1023C0001B013A6913433B617B690A2293437B619A
:1023D0007A69BB6813437B61FB683A699A61FB6861
:1023E0007A691A62C046BD4606B080BD80B586B027
:1023F00000AFF860B9607A60FB681B6A10229343F3
:102400001A00FB681A62FB689B697B61FB681B6AA8
:102410003B617B690D4A13407B617B681B037A69D2
:1024200013437B613B69A02293433B61BB681B0163
:102430003A6913433B61FB687A699A61FB683A69C0
:102440001A62C046BD4606B080BDC046FF0FFFFF02
:1024500080B584B000AF786039607B689B68FB60B2
:10246000FB6870229343FB603A68FB6813430722C2
:102470001343FB607B68FA689A60C046BD4604B0AF
:1024800080BD000080B586B000AFF860B9607A60AA
:102490003B60FB689B687B617B69094A13407B61F9
:1024A0003B681A027B681A43BB6813437A6913437B
:1024B0007B61FB687A699A60C046BD4606B080BD04
:1024C000FF00FFFF80B586B000AFF860B9607A60AA
:1024D000BB681F22134001229A4013007B61FB68F6
:1024E0001B6A7A69D2431A40FB681A62FB681A6A4F
:1024F000BB681F210B40796899400B001A43FB68A9
:102500001A62C046BD4606B080BD000080B584B0EA
:1025100000AF786039607B683C229B5C012B01D165
:10252000022342E07B683C22012199547B683D22D2
:10253000022199547B681B685B68FB607B681B68A1
:102540009B68BB60FB6870229343FB603B681B6821
:10255000FA681343FB607B681B68FA685A607B6803
:102560001B68144A93420AD07B681A688023DB05F3
:102570009A4204D07B681B680F4A93420CD1BB6817
:1025800080229343BB603B685B68BA681343BB60BF
:102590007B681B68BA689A607B683D220121995468
:1025A0007B683C220021995400231800BD4604B0EA
:1025B00080BDC046002C01400004004080B582B0C0
:1025C00000AF7860C046BD4602B080BD80B582B025
:1025D00000AF7860C046BD4602B080BD80B582B015
:1025E00000AF78607B68002B01D1012344E07B6859
:1025F0005B6F002B07D17B687022002199547B68A8
:102600001800FEF78DF87B6824225A677B681B68E8
:102610007A681268126801218A431A607B68180080
:1026200000F030F80300012B01D1012324E07B6886
:102630005B6A002B03D07B68180000F091F97B687F
:102640001B687A68126852680D490A405A607B68B4
:102650001B687A68126892682A218A439A607B68AC
:102660001B687A681268126801210A431A607B6845
:10267000180000F021FA03001800BD4602B080BD2A
:10268000FFB7FFFF80B588B000AF78600023BB6163
:102690001723FB1800221A707B689A687B681B69F5
:1026A0001A437B685B691A437B68DB6913433B61B0
:1026B0007B681B687A6812681268A24911403A69FF
:1026C0000A431A607B681B687A68126852689E49E0
:1026D00011407A68D2680A435A607B689B693B6103
:1026E0007B681B6A3A6913433B617B681B687A68A5
:1026F00012689268954911403A690A439A60944B6E
:102700001B6B03221340012B0FD004D3022B11D0DB
:10271000032B05D013E01F23FB1800221A7012E0D0
:102720001F23FB1802221A700DE01F23FB1804223E
:102730001A7008E01F23FB1808221A7003E01F23F9
:10274000FB1810221A70C0467B68DA6980231B02CE
:102750009A4200D080E01F23FB181B78022B1CD06C
:1027600002DC002B05D04BE0042B25D0082B37D002
:1027700046E0FEF75FFF0300FB60FB685A007B68E2
:102780005B685B08D2187B685B6819001000FDF776
:10279000BBFC03009BB2BB6137E07B685B685B08F6
:1027A0006C4A9A187B685B6819001000FDF7ACFC56
:1027B00003009BB2BB6128E0FEF7D2FE0300FB6082
:1027C000FB685A007B685B685B08D2187B685B68B3
:1027D00019001000FDF798FC03009BB2BB6114E0E8
:1027E0007B685B685B08802252029A187B685B6892
:1027F00019001000FDF788FC03009BB2BB6104E0E8
:102800001723FB1801221A70C046BB690F2B1ED973
:10281000BB69514A93421AD8BB699AB20A23FB1882
:102820000F218A431A80BB695B089BB207221340C1
:1028300099B20A23FB180A22BA1812880A431A808E
:102840007B681B680A22BA181288DA606CE01723CA
:10285000FB1801221A7067E01F23FB181B78022B5C
:102860001BD002DC002B05D049E0042B24D0082B20
:1028700035D044E0FEF7DEFE0300FB607B685B685A
:102880005A08FB68D2187B685B6819001000FDF7D6
:102890003BFC03009BB2BB6136E07B685B685B0876
:1028A0002E4A9A187B685B6819001000FDF72CFC13
:1028B00003009BB2BB6127E0FEF752FE0300FB6002
:1028C0007B685B685A08FB68D2187B685B681900F4
:1028D0001000FDF719FC03009BB2BB6114E07B689C
:1028E0005B685B08802212029A187B685B6819009B
:1028F0001000FDF709FC03009BB2BB6104E0172345
:10290000FB1801221A70C046BB690F2B08D9BB699E
:10291000114A934204D87B681B68BA69DA6003E005
:102920001723FB1801221A707B6800221A667B6845
:1029300000225A661723FB181B781800BD4608B002
:1029400080BDC046F369FFFFFFCFFFFFFFF4FFFF2D
:10295000001002400024F400FFFF000000127A0083
:1029600080B582B000AF78607B685B6A012213405B
:102970000AD07B681B687A68126852684549114022
:102980007A68926A0A435A607B685B6A0222134043
:102990000AD07B681B687A68126852683E49114009
:1029A0007A68D26A0A435A607B685B6A04221340E1
:1029B0000AD07B681B687A681268526837491140F0
:1029C0007A68126B0A435A607B685B6A082213407C
:1029D0000AD07B681B687A681268526830491140D7
:1029E0007A68526B0A435A607B685B6A1022134014
:1029F0000AD07B681B687A6812689268294911407E
:102A00007A68926B0A439A607B685B6A2022134063
:102A10000AD07B681B687A68126892682249114064
:102A20007A68D26B0A439A607B685B6A40221340E3
:102A30001BD07B681B687A68126852681B4911407A
:102A40007A68126C0A435A607B681A6C80235B03B5
:102A50009A420AD17B681B687A68126852681449E6
:102A600011407A68526C0A435A607B685B6A802224
:102A700013400AD07B681B687A68126852680D4957
:102A800011407A68926C0A435A60C046BD4602B053
:102A900080BDC046FFFFFDFFFFFFFEFFFFFFFBFF06
:102AA000FF7FFFFFFFEFFFFFFFDFFFFFFFFFEFFFF6
:102AB000FFFF9FFFFFFFF7FF80B586B002AF786092
:102AC0007B680022DA67FDF711FF0300FB607B687B
:102AD0001B681B6808221340082B0DD1FA6880235D
:102AE00099037868164B00931300002200F02AF82F
:102AF000031E01D003231FE07B681B681B680422B0
:102B00001340042B0DD1FA688023D90378680C4B4D
:102B100000931300002200F015F8031E01D00323D8
:102B20000AE07B6820225A677B6820229A677B68CC
:102B300070220021995400231800BD4604B080BDC6
:102B4000FFFFFF0180B584B000AFF860B9603B6063
:102B5000FB1D1A705DE0BB6901335AD0FDF7C6FE5C
:102B600002003B68D21ABB699A4202D8BB69002BAB
:102B70001BD1FB681B68FA68126812682F490A406B
:102B80001A60FB681B68FA681268926801218A4320
:102B90009A60FB6820225A67FB6820229A67FB68CC
:102BA000702200219954032343E0FB681B681B68D3
:102BB000042213402DD0FB681B68DA6980231B01B7
:102BC0001A4080231B019A4223D1FB681B68802294
:102BD00012011A62FB681B68FA68126812681749CA
:102BE0000A401A60FB681B68FA6812689268012143
:102BF0008A439A60FB6820225A67FB6820229A6702
:102C0000FB682022DA67FB687022002199540323B5
:102C10000FE0FB681B68DB69BA681A40BB68D31A0F
:102C20005A425341DBB21A00FB1D1B789A4292D0E4
:102C300000231800BD4604B080BDC0465FFEFFFF04
:102C40000D4885460D480E490E4A002302E0D4582F
:102C5000C4500433C4188C42F9D30B4A0B4C0023E4
:102C600001E013600432A242FBD3FDF7DFFD00F068
:102C700011F8FDF711FBFEE7001000200000002016
:102C800010000020442D0008100000203401002016
:102C9000FEE7000070B500260C4D0D4C641BA4101F
:102CA000A64209D1002600F021F80A4D0A4C641B07
:102CB000A410A64205D170BDB300EB589847013669
:102CC000EEE7B300EB5898470136F2E73C2D0008D9
:102CD0003C2D00083C2D0008402D00080300821800
:102CE000934200D1704719700133F9E7F8B5C04637
:102CF000F8BC08BC9E467047F8B5C046F8BC08BC96
:042D00009E46704734
:102D040002030405060708090A0B0C0D0E0F101028
:102D14000102030405060708090A0B0C0D0E0F1027
:102D24000000000000000000010203040607080977
:082D340000000000010203048D
:042D3C00E9000008A2
:042D4000C1000008C6
:102D44000100000000127A000400000001000000ED
:0400000508002C4182
:00000001FF
